:100000000C9434000C94B6000C94C0000C94510075
:100010000C9451000C9451000C9451000C9451001C
:100020000C9451000C9451000C9451000C9451000C
:100030000C9451000C9451000C9451000C945100FC
:100040000C9451000C9451000C9422010C9450011A
:100050000C9451000C9451000C9451000C945100DC
:100060000C9451000C94510011241FBECFEFD8E026
:10007000DEBFCDBF11E0A0E0B1E0ECEDF3E002C0E7
:1000800005900D92A838B107D9F721E0A8E8B1E0B2
:1000900001C01D92AD3CB207E1F70E9453000C94E1
:1000A000EC010C940000CF93DF93CDB7DEB76097DF
:1000B0000FB6F894DEBF0FBECDBF87EA91E6019779
:1000C000F1F700C0000099E288E10FB6F894A89516
:1000D000809360000FBE90936000A89504B603FE65
:1000E00007C08BE091E00E94020184B7877F84BF44
:1000F0002A9A229A81E291E00E9402018CE090E02B
:100100000E947A01789482E491E00E94A801F89418
:1001100083EC99E00197F1F700C000008BE591E0D6
:100120000E9402010E9411018FE691E00E940201EB
:1001300083B7817F846083BF0E94CA004AE0BE010A
:100140006F5F7F4F0E94B701CE0101960E940201AE
:1001500083B7816083BF889583B78E7F83BF87EA2B
:1001600091E60197F1F700C00000E6CF1F920F92D1
:100170000FB60F9211240F900FBE0F901F9018957D
:100180001F920F920FB60F9211240F900FBE0F9077
:100190001F901895ECE7F0E0808183608083EAE7A8
:1001A000F0E08081836080838081806880838081AB
:1001B00080648083808186FDFDCFEAE7F0E0808166
:1001C0008F778083809178009091790008952FB780
:1001D000F8949AE0E5B1EB7FE5B90000000000007B
:1001E00000000000E1E3F0E03197F1F7E5B180FDB8
:1001F000E46080FFEB7FE5B9089487959A9591F7C5
:100200002FBF0895CF93DF93EC018881882331F0CD
:1002100021960E94E70089918111FBCFDF91CF9158
:1002200008955A9AE9E6F0E08081826080835B9AC3
:10023000808188608083E89AE99A5C9A559A569AF8
:10024000579A08951F920F920FB60F9211242F9371
:100250008F939F93EF93FF938091C0002091C600EE
:100260008871E0918A01EF5FEF7190918901E91740
:1002700039F0E0938A01F0E0E357FE4F208301C09C
:1002800082E090918801892B80938801FF91EF9102
:100290009F918F912F910F900FBE0F901F901895E7
:1002A0001F920F920FB60F9211248F939F93EF938B
:1002B000FF9390918C0180918B01981769F0E091E8
:1002C0008B01EF5FEF71E0938B01F0E0E355FE4FA0
:1002D00080818093C60005C0E1ECF0E080818F7DD5
:1002E0008083FF91EF919F918F910F900FBE0F90A0
:1002F0001F90189510928C0110928B0110928A0118
:1003000010928901992324F422E02093C0009F7762
:100310009093C5008093C40088E98093C10086E073
:100320008093C200089520918C012F5F2F719091CE
:100330008B012917E1F3E22FF0E0E355FE4F8083B4
:1003400020938C01E1ECF0E080818062808308954D
:10035000CF93DF93EC018881882331F021960E94AE
:10036000930189918111FBCFDF91CF910895BB2734
:100370004A3031F4992322F4BDE2909581959F4F44
:100380000C94C301BB27FB015527AA27880F991F8F
:10039000AA1FA41710F0A41B83955051B9F7A05DB4
:1003A000AA3308F0A95DA193009779F7B111B19331
:1003B0001192CB010C94DC01DC01FC01672F7191DF
:1003C0007723E1F7329704C07C916D93708362913B
:0C03D000AE17BF07C8F30895F894FFCFE4
:1003DC0044656C6179696E670D0A005265636F76CE
:1003EC00657279206166746572205744542E0D0A2B
:1003FC0000446562756720507574204368617220F3
:10040C00757020616E6420776F726B696E67210D59
:10041C000A004D61696E205561727420696E6974B1
:10042C0069616C697A6564210D0A0050494E206936
:10043C006E697420737461727465642E0D0A0053B6
:10044C006C65657020636F6E66696720737461728A
:08045C007465642E0D0A000016
:00000001FF
