:100000000C945C000C947B000C9492000C9479008E
:100010000C9479000C9479000C9479000C9479007C
:100020000C9479000C9479000C9479000C9479006C
:100030000C9479000C9479000C9479000C9479005C
:100040000C94A9000C9479000C9413060C944106AE
:100050000C9479000C9479000C9479000C9479003C
:100060000C9479000C94790041542B434C49503D39
:10007000310D0041542B43504D533D22534D222C02
:1000800022534D222C22534D220D0041542B434D1F
:1000900047463D310D00415445300D0041540D009F
:1000A00041540D0041542B435245473F0D004154EC
:1000B0002B435245473F0D0011241FBECFEFD8E020
:1000C000DEBFCDBF14E0A0E0B1E0E0E7FAE102C09E
:1000D00005900D92AA3FB107D9F725E0AAEFB4E049
:1000E00001C01D92A734B207E1F70E94E2010C940F
:1000F000360D0C9400001F920F920FB60F92112430
:100100008F939F938FE39CE90197F1F700C0000064
:1001100081E08093FD049F918F910F900FBE0F900F
:100120001F9018951F920F920FB60F9211248F9364
:100130009F938FE39CE90197F1F700C0000081E0F5
:100140008093FA049F918F910F900FBE0F901F9094
:1001500018951F920F920FB60F9211242F938F9321
:100160009F938091FB049091FC048C3B9F4720F06F
:100170001092FC041092FB048091FB049091FC040B
:1001800001969093FC048093FB049F918F912F9193
:100190000F900FBE0F901F9018950F931F93CF9342
:1001A000DF93EC011092FC041092FB0416BC86E075
:1001B00091E00E9422038091FB049091FC048C1733
:1001C0009D0708F04BC010E001E09091FD049130D4
:1001D00069F40E9457031092FD041092FC041092DF
:1001E000FB0488E291E00E942203102F9091FA0410
:1001F000913039F50E946A038FE19EE40197F1F78F
:1002000000C000004B9B1DC01092FA049FEF24E336
:100210008CE0915020408040E1F700C000004B9BF3
:1002200010C086E491E00E94220380E096E90E94DB
:100230006C0387E591E00E9422038FE691E00E9423
:10024000B2060E9468030E9459032091FB0430917A
:10025000FC042C173D0708F4B8CF01C010E0812F33
:10026000DF91CF911F910F910895CF92DF92EF927E
:10027000FF921F93CF93DF93CDB7DEB760970FB692
:10028000F894DEBF0FBECDBF6C017B011092FC0461
:100290001092FB0416BC84E791E00E94220310E058
:1002A00032C09091FD04913019F50E9457031092CD
:1002B000FD041092FC041092FB041F5F88E291E0A1
:1002C0000E94220385E991E00E9422034AE0BE01D8
:1002D0006F5F7F4F812F90E00E941C0ACE01019634
:1002E0000E94220387ED91E00E9422030E9459039D
:1002F000212F30E0C216D30630F486EA91E00E9446
:10030000220381E008C02091FB043091FC042E15EB
:100310003F0538F280E060960FB6F894DEBF0FBE5E
:10032000CDBFDF91CF911F91FF90EF90DF90CF90E5
:100330000895CF93C82F289AA8958CEC91E00E943D
:10034000220380E096E90E946C03A8958AED91E073
:100350000E94220380E00E948804882369F182EFD2
:1003600091E00E942203A8958EEF91E00E94220363
:100370000E945B048823E1F08CE292E00E94220359
:10038000A89586E492E00E9422036C2F83EB93E011
:100390000E941305882339F085E592E00E9422032C
:1003A000289881E00DC081E692E00E94220304C0FB
:1003B00084E792E00E94220328980E94590380E07B
:1003C000CF9108952FEF89E698E121508040904029
:1003D000E1F700C000005B9A4B9B0E94FB05209A4E
:1003E0002FEF80E792E0215080409040E1F700C07D
:1003F00000002A9A229A8FE19EE40197F1F700C04B
:10040000000004B603FE0FC087ED91E00E942203B6
:100410008AE992E00E94220387ED91E00E94220384
:1004200084B7877F84BF80EB92E00E9422030E9402
:100430005B0383B7817F846083BF89EC92E00E9475
:1004400022038FE19EE40197F1F700C000008BEDDD
:1004500092E00E9422030E94A3020E94310382EED6
:1004600092E00E94220387EE92E00E9422030E9403
:10047000D3020E9431038FEE92E00E94220383EFA9
:1004800092E00E9422030E945903789466E970E08A
:1004900085E090E00E943501882359F10E945703BE
:1004A00080E00E9499010E9468038AE093E00E9424
:1004B00022030E9459038AE197E00E94CD0088231D
:1004C00081F00E946A038FE193E00E9422030E9460
:1004D000570385E393E00E94220381E00E94990183
:1004E0000CC08AE493E00E94220382E00E949901FA
:1004F00004C083E793E00E9422030E946A030E94E3
:1005000059038DE893E00E9422039FEF20E782E0E9
:10051000915020408040E1F700C0000083B7816027
:1005200083BF889583B78E7F83BF9FEF20E782E0EC
:10053000915020408040E1F700C0000088EA93E03D
:100540000E9422037ECFECE7F0E01082808180647D
:100550008083808183608083EAE7F0E08081876028
:1005600080838081806880838081806480838081B3
:1005700086FDFDCFEAE7F0E080818F778083609190
:10058000780070917900660F771F80E090E00E94FC
:100590008C0722E538EB4EE250E40E941A080E94D4
:1005A0005D07CB010895ECE7F0E010828081806464
:1005B0008083808188608083EAE7F0E080818760C3
:1005C0008083808180688083808180648083808153
:1005D00086FDFDCFEAE7F0E080818F778083609130
:1005E00078007091790080E090E00E948C0721E90A
:1005F0003DEE44E250E40E941A0823E333E348E866
:1006000053E40E94F0060E945D07CB0108952FB7C6
:10061000F8949AE0E5B1EB7FE5B900000000000036
:1006200000000000E1E3F0E03197F1F7E5B180FD73
:10063000E46080FFEB7FE5B9089487959A9591F780
:100640002FBF0895CF93DF93EC018881882331F089
:1006500021960E94070389918111FBCFDF91CF91F1
:100660000895CF93DF93CDB7DEB760970FB6F894B8
:10067000DEBF0FBECDBF4AE0BE016F5F7F4F0E945D
:100680001C0ACE0101960E94220360960FB6F894D0
:10069000DEBF0FBECDBFDF91CF91089585B58560D8
:1006A00085BDEEE6F0E08081816080830895E89862
:1006B0000895E89A08955A9A5B9AE9E6F0E08081F5
:1006C000886080838081846080830E944E030895C7
:1006D000E99A0895E99808950F931F938C0120E0FB
:1006E00030E0D901C801805C9D4BA04FBF4F880FFF
:1006F000991FAA1FBB1F880F991FAA1FBB1FBC01F0
:10070000CD01660F771F881F991F000F111F221F31
:10071000331F000F111F221F331FA9019801220F41
:10072000331F441F551F220F331F441F551F0E94A4
:100730008708C90101970E946B061F910F910895C8
:100740000E94840681159140D9F708952F923F9217
:100750004F925F926F927F928F929F92AF92BF92D1
:10076000CF92DF92EF92FF920F931F93CF93DF937D
:1007700000D000D01F92CDB7DEB7F82E5B015D83AD
:100780004C8328013901E982DB82CA8261E070E092
:1007900080E490E00E94A9088C01892B09F472C0C2
:1007A00080E4F80111928A95E9F7A114B10409F4E3
:1007B00046C00E94A003FF2021F0C5010E94C1068F
:1007C0003EC0C5010E94B2063AC0FFEFCF1ADF0A51
:1007D000EF0AFF0A22E02A95F1F700C00E94840682
:1007E0008115E1E09E0731F4C414D504E604F70452
:1007F00061F705C0C414D504E604F70430F080ECBA
:1008000093E00E942203F12C28C0F50181935F013F
:1008100093948C819D81009731F0BC01C8010E94A6
:10082000020A892BB1F466ED73E0C8010E94020A46
:10083000892B91F49FE3991207C0F12C0EC0580147
:10084000912C212C312C812CC22CD32CE82CF12C76
:10085000C5CFFF24F39401C0F12CE981EE2369F0A8
:100860008A819B81009749F09E1638F4FF2029F079
:10087000492D50E0B8010E94F209C8010E945A09AE
:100880008F2D01C080E00F900F900F900F900F9070
:10089000DF91CF911F910F91FF90EF90DF90CF905C
:1008A000BF90AF909F908F907F906F905F904F9090
:1008B0003F902F900895CF92DF92EF920F931F9366
:1008C000C12CD12CE12C00E41BE42CE430E04CEDF5
:1008D00053E06EEA70E081E00E94A603811111C02E
:1008E00000E41BE42CE430E047EE53E064EA70E0FF
:1008F00081E00E94A60391E0811101C090E0892F60
:1009000001C081E01F910F91EF90DF90CF9008958B
:10091000CF92DF92EF920F931F938823B9F0C12CEF
:10092000D12CE12C00E211EA27E030E042EF53E065
:1009300060EA70E081E00E94A603882381F38FE1E2
:100940009EE40197F1F700C0000017C0C12CD12C24
:10095000E12C00E211EA27E030E042EF53E06CE9DD
:1009600070E081E00E94A603EFE1FEE43197F1F729
:1009700000C00000882309F450C0C12CD12CE12C08
:1009800000E211EA27E030E042EF53E066E970E070
:1009900081E00E94A603882309F43FC08FE19EE412
:1009A0000197F1F700C0000000E211EA27E030E013
:1009B00042EF53E06BE870E081E00E94A6038823D9
:1009C00061F1EFE1FEE43197F1F700C0000000E2D1
:1009D00011EA27E030E042EF53E063E770E081E0A6
:1009E0000E94A6038823C9F08FE19EE40197F1F7E6
:1009F00000C0000000E211EA27E030E042EF53E0DF
:100A000068E670E081E00E94A603882331F0EFE100
:100A1000FEE43197F1F700C000001F910F91EF90B5
:100A2000DF90CF900895CF92DF92EF92FF920F93D5
:100A30001F93CF93DF93182F092FF62E61E070E0FC
:100A400080E290E00E94A908EC01009709F4BDC083
:100A500020E2FC01822F11928A95E9F70F931F93F0
:100A600085EF93E09F938F931F922F93DF93CF9304
:100A70000E94410AC12CD12CE12C00E814E82EE19F
:100A800030E043E054E0BE0180E00E94A603182F4E
:100A90008DB79EB708960FB6F8949EBF0FBE8DBF58
:100AA000112309F48DC0F11026C0EFE1FEE4319767
:100AB000F1F700C000008BED92E00E94B2060E94A8
:100AC000A3020E94D30682EE92E00E94B20687EE55
:100AD00092E00E94B2060E94D3020E94D3068FEEDB
:100AE00092E00E94B20684E394E00E94B2068AE19A
:100AF0000E949D0646C0F1E0FF1220C08BED92E0FF
:100B00000E94B2060E94A3020E94D30682EE92E0E7
:100B10000E94B20687EE92E00E94B2060E94D302C3
:100B20000E94D3068FEE92E00E94B20689E594E01F
:100B30000E94B2068AE10E949D0623C082E0F8125C
:100B400020C08BED92E00E94B2060E94A3020E9498
:100B5000D30682EE92E00E94B20687EE92E00E94F7
:100B6000B2060E94D3020E94D3068FEE92E00E944A
:100B7000B2068FE794E00E94B2068AE10E949D06C9
:100B80001FC08BED92E00E94B2060E94A3020E9459
:100B9000D30682EE92E00E94B20687EE92E00E94B7
:100BA000B2060E94D3020E94D3068FEE92E00E940A
:100BB000B20683EE94E00E94B2068AE10E949D068E
:100BC000CE010E945A09812F01C080E0DF91CF91B0
:100BD0001F910F91FF90EF90DF90CF9008955D9857
:100BE0005D985D98559A569A579A5B9A8AE18A95CC
:100BF000F1F700C008950E94EF055D9A2FEF8AED8E
:100C00009AE1215080409040E1F700C000005D98DB
:100C10002FEF8DE399E4215080409040E1F700C030
:100C2000000081E008951F920F920FB60F921124D9
:100C30002F938F939F93EF93FF938091C000209108
:100C4000C6008871E0910005EF5FEF719091FF049D
:100C5000E91739F0E0930005F0E0ED5FFA4F2083EB
:100C600001C082E09091FE04892B8093FE04FF91E5
:100C7000EF919F918F912F910F900FBE0F901F902A
:100C800018951F920F920FB60F9211248F939F9376
:100C9000EF93FF939091020580910105981769F0F9
:100CA000E0910105EF5FEF71E0930105F0E0ED5D8C
:100CB000FA4F80818093C60005C0E1ECF0E08081AE
:100CC0008F7D8083FF91EF919F918F910F900FBE49
:100CD0000F901F9018951092020510920105109226
:100CE00000051092FF04992324F422E02093C00011
:100CF0009F779093C5008093C40088E98093C100DA
:100D000086E08093C2000895909100058091FF04D1
:100D1000981781F0E091FF04EF5FEF71E093FF041B
:100D2000F0E0ED5FFA4F80819091FE041092FE0496
:100D300090E0089580E091E00895209102052F5FF2
:100D40002F71909101052917E1F3E22FF0E0ED5D9D
:100D5000FA4F808320930205E1ECF0E0808180620D
:100D600080830895CF93DF93EC018881882331F04D
:100D700021960E949D0689918111FBCFDF91CF9131
:100D80000895CF93DF93EC012196FC018491882391
:100D900039F00E949D06FE01849121968111F9CFC0
:100DA000DF91CF910895CF93DF93CDB7DEB76097F2
:100DB0000FB6F894DEBF0FBECDBF4AE0BE016F5F35
:100DC0007F4F0E941C0ACE0101960E94B2066096D7
:100DD0000FB6F894DEBF0FBECDBFDF91CF9108955F
:100DE0005058BB27AA270E9408070C94E0070E94CE
:100DF000D20738F00E94D90720F039F49F3F19F448
:100E000026F40C94CF070EF4E095E7FB0C94C90789
:100E1000E92F0E94F10758F3BA1762077307840796
:100E2000950720F079F4A6F50C9413080EF4E095DC
:100E30000B2EBA2FA02D0B01B90190010C01CA0194
:100E4000A0011124FF27591B99F0593F50F4503E3F
:100E500068F11A16F040A22F232F342F4427585F31
:100E6000F3CF469537952795A795F0405395C9F749
:100E70007EF41F16BA0B620B730B840BBAF0915001
:100E8000A1F0FF0FBB1F661F771F881FC2F70EC0A0
:100E9000BA0F621F731F841F48F487957795679573
:100EA000B795F7959E3F08F0B0CF9395880F08F05F
:100EB0009927EE0F9795879508950E94F90788F076
:100EC0009F5798F0B92F9927B751B0F0E1F0660F0E
:100ED000771F881F991F1AF0BA95C9F714C0B1304F
:100EE00091F00E941308B1E008950C941308672F45
:100EF000782F8827B85F39F0B93FCCF3869577957E
:100F00006795B395D9F73EF4909580957095619566
:100F10007F4F8F4F9F4F0895E89409C097FB3EF491
:100F200090958095709561957F4F8F4F9F4F992336
:100F3000A9F0F92F96E9BB279395F69587957795B4
:100F40006795B795F111F8CFFAF4BB0F11F460FF74
:100F50001BC06F5F7F4F8F4F9F4F16C0882311F0CC
:100F600096E911C0772321F09EE8872F762F05C0E0
:100F7000662371F096E8862F70E060E02AF09A957B
:100F8000660F771F881FDAF7880F9695879597F970
:100F9000089597F99F6780E870E060E008959FEFFB
:100FA00080EC089500240A94161617061806090600
:100FB000089500240A9412161306140605060895CF
:100FC000092E0394000C11F4882352F0BB0F40F457
:100FD000BF2B11F460FF04C06F5F7F4F8F4F9F4F97
:100FE000089557FD9058440F551F59F05F3F71F019
:100FF0004795880F97FB991F61F09F3F79F0879580
:101000000895121613061406551FF2CF4695F1DF08
:1010100008C0161617061806991FF1CF8695710598
:10102000610508940895E894BB2766277727CB01CC
:1010300097F908950E942D080C94E0070E94D207AA
:1010400038F00E94D90720F0952311F00C94C907BD
:101050000C94CF0711240C9414080E94F10770F32C
:10106000959FC1F3950F50E0551F629FF001729F4D
:10107000BB27F00DB11D639FAA27F00DB11DAA1F5C
:10108000649F6627B00DA11D661F829F2227B00DA9
:10109000A11D621F739FB00DA11D621F839FA00D34
:1010A000611D221F749F3327A00D611D231F849F84
:1010B000600D211D822F762F6A2F11249F575040DB
:1010C0009AF0F1F088234AF0EE0FFF1FBB1F661F56
:1010D000771F881F91505040A9F79E3F510580F01F
:1010E0000C94C9070C9414085F3FE4F3983ED4F3C2
:1010F000869577956795B795F795E7959F5FC1F7C3
:10110000FE2B880F911D9695879597F90895A1E27A
:101110001A2EAA1BBB1BFD010DC0AA1FBB1FEE1F71
:10112000FF1FA217B307E407F50720F0A21BB30BBC
:10113000E40BF50B661F771F881F991F1A9469F738
:1011400060957095809590959B01AC01BD01CF0194
:1011500008950F931F93CF93DF93869F8001879FFE
:10116000100D969F100D1124C8010E94C508EC01B6
:10117000009729F0A80160E070E00E94FB09CE0111
:10118000DF91CF911F910F910895CF93DF9382301C
:10119000910510F482E090E0E0914505F09146055C
:1011A00020E030E0C0E0D0E0309711F14081518183
:1011B00048175907C0F04817590761F48281938195
:1011C000209719F09B838A832BC0909346058093C8
:1011D000450526C02115310519F04217530718F4AB
:1011E0009A01BE01DF01EF010280F381E02DDCCF27
:1011F0002115310509F1281B390B2430310590F4F4
:1012000012968D919C9113976115710521F0FB0148
:101210009383828304C09093460580934505FD0126
:10122000329644C0FD01E20FF31F81939193225047
:1012300031092D933C933AC02091430530914405E8
:10124000232B41F420910201309103013093440596
:1012500020934305209100013091010121153105B2
:1012600041F42DB73EB74091040150910501241B74
:10127000350BE0914305F0914405E217F307A0F424
:101280002E1B3F0B2817390778F0AC014E5F5F4FDC
:101290002417350748F04E0F5F1F509344054093C5
:1012A00043058193919302C0E0E0F0E0CF01DF912C
:1012B000CF9108950F931F93CF93DF93009709F475
:1012C0008CC0FC0132971382128200914505109167
:1012D00046050115110581F420813181820F931F8C
:1012E00020914305309144052817390779F5F0938B
:1012F0004405E093430571C0D80140E050E0AE17CB
:10130000BF0750F412962D913C911397AD01211512
:10131000310509F1D901F3CF9D01DA01338322832D
:1013200060817181860F971F8217930769F4EC0122
:1013300028813981260F371F2E5F3F4F318320834D
:101340008A819B8193838283452B29F4F093460500
:10135000E093450542C01396FC93EE931297ED017E
:10136000499159919E01240F351FE217F30771F43B
:1013700080819181840F951F029611969C938E9384
:101380008281938113969C938E931297E0E0F0E014
:10139000D80112968D919C911397009719F0F8013E
:1013A0008C01F6CF8D919C9198012E5F3F4F820F5B
:1013B000931F20914305309144052817390769F49C
:1013C000309729F4109246051092450502C0138209
:1013D00012821093440500934305DF91CF911F9132
:1013E0000F910895FB01DC0102C001900D92415064
:1013F0005040D8F70895DC0101C06D934150504032
:10140000E0F70895FB0151915523A9F0BF01DC01DC
:101410004D9145174111E1F759F4CD01019000209C
:1014200049F04D9140154111C9F3FB014111EFCF36
:1014300081E090E001970895BB274A3031F4992369
:1014400022F4BDE2909581959F4F0C94280ABB270A
:10145000FB015527AA27880F991FAA1FA41710F070
:10146000A41B83955051B9F7A05DAA3308F0A95D7C
:10147000A193009779F7B111B1931192CB010C941C
:10148000590CAEE0B0E0E7E4FAE00C940D0D0D89E4
:101490001E898F89988D26E02C831A83098397FFF4
:1014A00002C080E090E801979E838D83AE01455E87
:1014B0005F4F698D7A8DCE0101960E94710A4D8130
:1014C0005E8157FD0AC02F813885421753070CF4FF
:1014D0009A01F801E20FF31F10822E96E4E00C94BB
:1014E000290DACE0B0E0E7E7FAE00C94FF0C7C01DA
:1014F0006B018A01FC0117821682838181FFBDC1C5
:10150000CE0101964C01F7019381F60193FD85917F
:1015100093FF81916F01882309F4ABC1853239F4BF
:1015200093FD859193FF81916F01853229F4B70175
:1015300090E00E94690CE7CF512C312C20E0203242
:10154000A0F48B3269F030F4803259F0833269F4C0
:1015500020612CC08D3239F0803339F4216026C0EF
:101560002260246023C0286021C027FD27C030ED01
:10157000380F3A3078F426FF06C0FAE05F9E300D4F
:101580001124532E13C08AE0389E300D1124332EBF
:1015900020620CC08E3221F426FD6BC1206406C08F
:1015A0008C3611F4206802C0883641F4F60193FDB0
:1015B000859193FF81916F018111C1CF982F9F7DFC
:1015C0009554933028F40C5F1F4FFFE3F9830DC04F
:1015D000833631F0833771F0833509F05BC022C068
:1015E000F801808189830E5F1F4F44244394512C5E
:1015F000540115C03801F2E06F0E711CF801A08093
:10160000B18026FF03C0652D70E002C06FEF7FEF51
:10161000C5012C870E944E0C2C0183012C852F774D
:10162000222E17C03801F2E06F0E711CF801A08065
:10163000B18026FF03C0652D70E002C06FEF7FEF21
:10164000C5012C870E94430C2C012C852068222E7A
:10165000830123FC1BC0832D90E048165906B0F48B
:10166000B70180E290E00E94690C3A94F4CFF50152
:1016700027FC859127FE81915F01B70190E00E94D0
:10168000690C31103A94F1E04F1A51084114510499
:1016900071F7E5C0843611F0893639F5F80127FF76
:1016A00007C060817181828193810C5F1F4F08C0E8
:1016B00060817181072E000C880B990B0E5F1F4F04
:1016C0002F76722E97FF09C0909580957095619541
:1016D0007F4F8F4F9F4F2068722E2AE030E0A40189
:1016E0000E94A10CA82EA81844C0853729F42F7E8B
:1016F000B22E2AE030E025C0F22FF97FBF2E8F36C0
:10170000C1F018F4883579F0B4C0803719F0883703
:1017100021F0AFC02F2F2061B22EB4FE0DC08B2D53
:101720008460B82E09C024FF0AC09F2F9660B92E8E
:1017300006C028E030E005C020E130E002C020E132
:1017400032E0F801B7FE07C0608171818281938128
:101750000C5F1F4F06C06081718180E090E00E5FDA
:101760001F4FA4010E94A10CA82EA818FB2DFF77E3
:101770007F2E76FE0BC0372D3E7FA51450F474FEED
:101780000AC072FC08C0372D3E7E05C0BA2C372D2A
:1017900003C0BA2C01C0B52C34FF0DC0FE01EA0D08
:1017A000F11D8081803311F4397E09C032FF06C0FB
:1017B000B394B39404C0832F867809F0B39433FDB7
:1017C00013C030FF06C05A2CB31418F4530C5B1826
:1017D000B32CB31468F4B70180E290E03C870E9418
:1017E000690CB3943C85F5CFB31410F43B1801C0D9
:1017F000312C34FF12C0B70180E390E03C870E9497
:10180000690C3C8532FF17C031FD03C088E790E0CA
:1018100002C088E590E0B7010CC0832F867859F0AC
:1018200031FF02C08BE201C080E237FD8DE2B701DB
:1018300090E00E94690CA51438F4B70180E390E0B1
:101840000E94690C5A94F7CFAA94F401EA0DF11D95
:101850008081B70190E00E94690CA110F5CF332080
:1018600009F451CEB70180E290E00E94690C3A94ED
:10187000F6CFF7018681978102C08FEF9FEF2C96FC
:10188000E2E10C941B0DFC010590615070400110C9
:10189000D8F7809590958E0F9F1F0895FC01615099
:1018A000704001900110D8F7809590958E0F9F1F82
:1018B0000895DC01FC01672F71917723E1F73297DE
:1018C00004C07C916D9370836291AE17BF07C8F31B
:1018D00008950F931F93CF93DF93FB01238121FD85
:1018E00003C08FEF9FEF28C022FF16C046815781AB
:1018F000248135814217530744F4A081B1819D01B1
:101900002F5F3F4F318320838C93268137812F5F58
:101910003F4F3783268310C0EB01092F182F008417
:10192000F185E02D0995892BE1F68E819F81019645
:101930009F838E83812F902FDF91CF911F910F91E5
:101940000895FA01AA27283051F1203181F1E89455
:101950006F936E7F6E5F7F4F8F4F9F4FAF4FB1E0A2
:101960003ED0B4E03CD0670F781F891F9A1FA11D9D
:10197000680F791F8A1F911DA11D6A0F711D811D9E
:10198000911DA11D20D009F468943F912AE0269F63
:1019900011243019305D3193DEF6CF010895462FC2
:1019A0004770405D4193B3E00FD0C9F7F6CF462FA3
:1019B0004F70405D4A3318F0495D31FD405241930C
:1019C00002D0A9F7EACFB4E0A695979587957795C9
:1019D0006795BA95C9F700976105710508959B0150
:1019E000AC010A2E06945795479537952795BA95D9
:1019F000C9F7620F731F841F951FA01D08952F92B2
:101A00003F924F925F926F927F928F929F92AF928E
:101A1000BF92CF92DF92EF92FF920F931F93CF93DB
:101A2000DF93CDB7DEB7CA1BDB0B0FB6F894DEBF72
:101A30000FBECDBF09942A88398848885F846E8498
:101A40007D848C849B84AA84B984C884DF80EE80E2
:101A5000FD800C811B81AA81B981CE0FD11D0FB6EB
:101A6000F894DEBF0FBECDBFED010895F894FFCF0F
:101A700000004705200057616974696E6720666F32
:101A800072206D6F76656D656E7420746F20666967
:101A90006E6973682E0D0A004576656E7420646564
:101AA0007465637465642C20706F7374706F6E69F5
:101AB0006E672E0D0A0052494E47206465746563B7
:101AC0007465642E0D0A00416E73776572696E67E6
:101AD0002070686F6E652063616C6C2E0D0A00418A
:101AE00054410D00436865636B696E67206973201C
:101AF0006D6F76656D656E74206973206C656769BE
:101B0000742E0D0A004D6F76656D656E7420636FDF
:101B1000756E743A20004D6F76656D656E74206940
:101B200073206C656769742C206368616E67696EE9
:101B300067207374617475732E0D0A0047534D202E
:101B40007461736B2E2E2E0D0A00436865636B69FA
:101B50006E67206D6F64656D2073657475702E0DF2
:101B60000A005365747570206F6B2E0D0A00436870
:101B700065636B696E67206966206D6F64656D20B3
:101B80006973207265676973746572656420746F28
:101B9000206E6574776F726B2E0D0A00526567694F
:101BA0007374657220746F206E6574776F726B202A
:101BB0006F6B2E0D0A0053656E64696E6720534D7E
:101BC000532E0D0A00534D532073656E742E0D0A6B
:101BD00000534D532073656E64206661696C6564C3
:101BE0002E0D0A004D6F64656D206973206E6F7451
:101BF000207265676973746572656420746F206E06
:101C00006574776F726B2E0D0A005265636F76658F
:101C10007279206166746572205744542E0D0A0053
:101C20005374616E6461727420696E697420737498
:101C300061727465642E0D0A00536C656570206DC9
:101C40006F6465207365742E0D0A00566261743AE4
:101C500020006D560D0A0054656D702E3A20004329
:101C60000D0A004D6F6E69746F72696E67206D6F3B
:101C700076656D656E742E0D0A0052696E6720647C
:101C80006574656374696F6E206F6E2E0D0A005265
:101C9000494E4720646574656374696F6E206F6692
:101CA000662E0D0A004D6F76656D656E742066694F
:101CB0006E69736865642E0D0A004E6F206D6F7635
:101CC000656D656E74206465746563746564206910
:101CD0006E20776169742066756E6374696F6E2E0D
:101CE0000D0A004D6F76656D656E74207761732007
:101CF0006E6F74206C656769742E0D0A00494E542E
:101D000030206F6E2C20476F696E6720746F2073D0
:101D10006C6565702E0D0A00576F6B652075702E0F
:101D20000D0A002B3337303631323137373838002F
:101D3000415420636F6D6D616E642074696D656FD1
:101D400075742E0D0A004552524F52002B435245D6
:101D5000473A20302C31002B435245473A20302C53
:101D600035004F4B0041542B434D47533D222573C3
:101D7000220D003E004A75646573696F206E6562CE
:101D8000657261206A617520356D696E2E2E205254
:101D9000797379732061746A756E6769616D6173B7
:101DA0002E0D0A0053697374656D612073756A7531
:101DB00064696E74612C20727973797320696A7515
:101DC0006E677461732E0D0A004A756465737973CA
:101DD00020626169676573692E2052797379732077
:101DE00061746A756E6769616D61732E0D0A0050CA
:101DF00065722070616772696E64696E69206C61DA
:101E0000696B6F74617270692073697374656D6159
:101E1000206E6573756A7564656A6F2C2072656BD8
:101E20006F6D656E64756F6A616D612070616B6561
:101E300069737469207069726D696E696F20666973
:101E40006C74726F206E7573746174796D75732E16
:101E50000D0A0050726F6772616D206572726F7249
:0A1E60002E0041544425733B0D0091
:00000001FF
