:100000003AC055C06BC052C051C050C04FC04EC066
:100010004DC06EC04BC056C381C348C047C046C028
:1000200045C044C043C041542B434C49503D310D61
:100030000041542B43504D533D22534D222C22530B
:100040004D222C22534D220D0041542B434D474647
:100050003D310D00415445300D0041540D004154D7
:100060000D0041542B435245473F0D0041542B4353
:100070005245473F0D0011241FBECFE5D4E0DEBF3F
:10008000CDBF12E0A0E6B0E0E2E7F1E102C00590EA
:100090000D92A83AB107D9F722E0A8EAB2E001C070
:1000A0001D92A43FB207E1F76AD061C8A9CF1F92A1
:1000B0000F920FB60F9211248F939F9381E080933C
:1000C000AA0287E893E10197F1F700C000009F9131
:1000D0008F910F900FBE0F901F9018951F920F9247
:1000E0000FB60F9211240F900FBE0F901F9018950E
:1000F0001F920F920FB60F9211248F939F938091AE
:10010000A8029091A9028E3F910520F01092A902B9
:100110001092A8028091A8029091A9020196909352
:10012000A9028093A8029F918F910F900FBE0F900C
:100130001F9018951F93CF93DF93EC011092A902A3
:100140001092A80212BE80E011E00EC09091AA02A7
:10015000913051F41092AA021092A9021092A802B2
:1001600081E790E0C8D0812F2091A8023091A902A8
:100170002C173D0758F3DF91CF911F910895CF932E
:10018000DF93CDB7DEB76D970FB6F894DEBF0FBE25
:10019000CDBF87EA91E60197F1F700C0000004B6F1
:1001A00003FE06C08FE890E0A6D084B7877F84BFA7
:1001B000C19AB99A85EA90E09ED08CE090E0D3D2C3
:1001C000789486EC90E01BD3F89483EC99E0019747
:1001D000F1F700C000008FED90E08DD0A9D085B779
:1001E0008F78806285BF88EF90E085D0B89A789448
:1001F0000DE01CE057D04AE0BE01665E7F4FB1D4EF
:100200008AE091E078D0CE014A9675D08CED90E0EE
:1002100072D08DE191E06FD081E090E08BDF882398
:1002200039F07ED084E391E066D0C09A7DD003C0DF
:1002300089E491E060D0C09881E691E05CD070D014
:10024000EEE7F1E0DE011196802F01900D928A9584
:10025000E1F7EBE8F1E0DE011E96812F01900D92AF
:100260008A95E1F780EC92E169D081E06ED142D1CC
:10027000882331F0BE01625F7F4FCE010196C2D16B
:1002800053D085B7806885BF889585B78F7785BF40
:1002900087EA91E60197F1F700C0000083E791E05B
:1002A0002AD0A8CF87B1836087B986B1836086B929
:1002B000379A369A3699FECF379884B195B108951A
:1002C0002FB7F8949AE0E8B3ED7FE8BB0000000098
:1002D000000000000000E1E3F0E03197F1F7E8B33F
:1002E00080FDE26080FFED7FE8BB089487959A95DA
:1002F00091F72FBF0895CF93DF93EC018881882376
:1003000029F02196DDDF89918111FCCFDF91CF911A
:10031000089583B7856083BF89B7816089BF0895D9
:100320008BB78F7B8BBF08958BB780648BBF08958D
:10033000929A8BB780648BBFECDF08950F931F9365
:100340008C0120E030E0D901C801885B9741AE4FB5
:10035000BF4F880F991FAA1FBB1F880F991FAA1F85
:10036000BB1FBC01CD01660F771F881F991F000FAF
:10037000111F221F331F000F111F221F331FA9013E
:100380009801220F331F441F551F220F331F441F94
:10039000551F54D2C9010197E6D11F910F910895BD
:1003A000F6D181159140E1F708952F923F924F9237
:1003B0005F926F927F928F929F92AF92BF92CF92F5
:1003C000DF92EF92FF920F931F93CF93DF9300D0B2
:1003D00000D01F92CDB7DEB7F82E5B015D834C8352
:1003E00028013901E982DB82CA8261E070E080E4A1
:1003F00090E046D28C01892B09F463C080E4F801B7
:1004000011928A95E9F7A114B104C1F1C9DFFF2067
:1004100019F0C50102D232C0C501E3D12FC0FFEFF0
:10042000CF1ADF0AEF0AFF0A0000B1D1811521E0DF
:10043000920739F4C414D504E604F70481F7F12CCB
:100440002DC0C414D504E604F70410F5F50181931A
:100450005F0193948C819D81009729F0BC01C801B4
:1004600066D3892BB9F467E971E0C80160D3892BA1
:10047000A1F49FE3991207C0F12C10C05801912CF0
:10048000212C312C812CC22CD32CE82CF12CCDCF5B
:10049000F12C04C0FF24F39401C0F12CE981EE2378
:1004A00061F08A819B81009741F09E1630F4FF2015
:1004B00021F0492D50E0B8012AD3C80190D28F2DE8
:1004C00001C080E00F900F900F900F900F90DF9180
:1004D000CF911F910F91FF90EF90DF90CF90BF9041
:1004E000AF909F908F907F906F905F904F903F90D4
:1004F0002F900895CF92DF92EF920F931F93C12C0C
:10050000D12CE12C00E41BE42CE430E04DE951E077
:100510006CE670E081E049DF811110C000E41BE46B
:100520002CE430E048EA51E062E670E081E03DDF33
:1005300091E0811101C090E0892F01C081E01F91FD
:100540000F91EF90DF90CF900895CF92DF92EF92CE
:100550000F931F93882381F0C12CD12CE12C00E252
:1005600011EA27E030E044EA52E06EE570E081E015
:100570001CDF882389F30FC0C12CD12CE12C00E2B1
:1005800011EA27E030E044EA52E06AE570E081E0F9
:100590000CDF882389F1C12CD12CE12C00E211EA77
:1005A00027E030E044EA52E064E570E081E0FDDEFF
:1005B000882311F100E211EA27E030E044EA52E03A
:1005C00069E470E081E0F1DE8823B1F000E211EA35
:1005D00027E030E044EA52E061E370E081E0E5DEEC
:1005E000882351F000E211EA27E030E044EA52E0CB
:1005F00066E270E081E0D9DE1F910F91EF90DF900D
:10060000CF900895AF92BF92CF92DF92EF920F9367
:100610001F93CF93DF93182F092F5B0161E070E0E8
:1006200080E290E02DD1EC01009709F440C020E277
:10063000FC01822F11928A95E9F70F931F9383EBA8
:1006400091E09F938F931F922F93DF93CF93ACD220
:10065000C12CD12CE12C00E814E82EE130E041EC73
:1006600051E0BE0180E0A1DE182F8DB79EB708963D
:100670000FB6F8949EBF0FBE8DBF1123A1F08EE17F
:10068000F501DE0101900D928A95E1F78AE18E8FE6
:100690001F8E00E816E928E930E044EA52E0BE0186
:1006A00080E083DE182FCE019AD1812F01C080E037
:1006B000DF91CF911F910F91EF90DF90CF90BF907E
:1006C000AF9008951F920F920FB60F9211242F939F
:1006D0008F939F93EF93FF938BB12CB18871E0912F
:1006E000AD02EF5FEF719091AC02E91739F0E09342
:1006F000AD02F0E0E055FD4F208301C082E0909113
:10070000AB02892B8093AB02FF91EF919F918F9168
:100710002F910F900FBE0F901F9018951F920F9260
:100720000FB60F9211248F939F93EF93FF939091A5
:10073000AF028091AE02981761F0E091AE02EF5FD8
:10074000EF71E093AE02F0E0E053FD4F80818CB991
:1007500001C05598FF91EF919F918F910F900FBE1F
:100760000F901F9018951092AF021092AE02109247
:10077000AD021092AC0299231CF422E02BB99F77B2
:1007800090BD89B988E98AB986E880BD08959091BD
:10079000AD028091AC02981781F0E091AC02EF5F5E
:1007A000EF71E093AC02F0E0E055FD4F8081909155
:1007B000AB021092AB0290E0089580E091E00895C2
:1007C0002091AF022F5F2F719091AE022917E1F3B4
:1007D000E22FF0E0E053FD4F80832093AF02559A63
:1007E0000895CF93DF93EC018881882329F0219627
:1007F000E7DF89918111FCCFDF91CF910895CF93ED
:10080000DF93EC018881882329F02196D9DF899133
:100810008111FCCFDF91CF910895CF93DF93EC014D
:100820002196FC018491882331F0CADFFE01849176
:1008300021968111FACFDF91CF910895A1E21A2E6E
:10084000AA1BBB1BFD010DC0AA1FBB1FEE1FFF1F74
:10085000A217B307E407F50720F0A21BB30BE40BC4
:10086000F50B661F771F881F991F1A9469F760950B
:100870007095809590959B01AC01BD01CF010895C5
:100880000F931F93CF93DF93869F8001879F100D57
:10089000969F100D1124C8010DD0EC01009721F096
:1008A000A80160E070E03CD1CE01DF91CF911F91B3
:1008B0000F910895CF93DF938230910510F482E079
:1008C00090E0E091F202F091F30220E030E0C0E02D
:1008D000D0E0309711F14081518148175907C0F09D
:1008E0004817590761F482819381209719F09B83FF
:1008F0008A832BC09093F3028093F20226C02115C5
:10090000310519F04217530718F49A01BE01DF01AF
:10091000EF010280F381E02DDCCF2115310509F1D3
:10092000281B390B2430310590F412968D919C913F
:1009300013976115710521F0FB019383828304C035
:100940009093F3028093F202FD01329644C0FD01C0
:10095000E20FF31F81939193225031092D933C9321
:100960003AC02091F0023091F102232B41F4209102
:100970006200309163003093F1022093F0022091E5
:100980006000309161002115310541F42DB73EB76B
:100990004091640050916500241B350BE091F002FA
:1009A000F091F102E217F307A0F42E1B3F0B28177A
:1009B000390778F0AC014E5F5F4F2417350748F0D8
:1009C0004E0F5F1F5093F1024093F0028193919379
:1009D00002C0E0E0F0E0CF01DF91CF9108950F93E6
:1009E0001F93CF93DF93009709F48CC0FC013297DB
:1009F000138212820091F2021091F3020115110587
:100A000081F420813181820F931F2091F002309177
:100A1000F1022817390779F5F093F102E093F0021B
:100A200071C0D80140E050E0AE17BF0750F41296F5
:100A30002D913C911397AD012115310509F1D90193
:100A4000F3CF9D01DA013383228360817181860FA8
:100A5000971F8217930769F4EC0128813981260FCB
:100A6000371F2E5F3F4F318320838A819B81938381
:100A70008283452B29F4F093F302E093F20242C003
:100A80001396FC93EE931297ED01499159919E01B3
:100A9000240F351FE217F30771F480819181840FD1
:100AA000951F029611969C938E9382819381139643
:100AB0009C938E931297E0E0F0E0D80112968D910E
:100AC0009C911397009719F0F8018C01F6CF8D9146
:100AD0009C9198012E5F3F4F820F931F2091F0024F
:100AE0003091F1022817390769F4309729F41092F0
:100AF000F3021092F20202C0138212821093F102EA
:100B00000093F002DF91CF911F910F910895FB01A7
:100B1000DC0102C001900D9241505040D8F7089579
:100B2000DC0101C06D9341505040E0F70895FB0196
:100B300051915523A9F0BF01DC014D914517411199
:100B4000E1F759F4CD010190002049F04D91401595
:100B50004111C9F3FB014111EFCF81E090E0019712
:100B60000895BB274A3031F4992322F4BDE29095D1
:100B700081959F4F01C0BB27FB015527AA27880FEE
:100B8000991FAA1FA41710F0A41B83955051B9F701
:100B9000A05DAA3308F0A95DA193009779F7B11180
:100BA000B1931192CB0106C2AEE0B0E0E9EDF5E001
:100BB000B5C20D891E898F89988D26E02C831A83F2
:100BC000098397FF02C080E090E801979E838D83A0
:100BD000AE01455E5F4F698D7A8DCE01019611D0D1
:100BE0004D815E8157FD0AC02F813885421753071A
:100BF0000CF49A01F801E20FF31F10822E96E4E044
:100C0000A9C2ACE0B0E0E6E0F6E07AC27C016B019C
:100C10008A01FC0117821682838181FFB0C1CE0157
:100C200001964C01F7019381F60193FD859193FFA5
:100C300081916F01882309F49EC1853239F493FDB7
:100C4000859193FF81916F01853221F4B70190E086
:100C5000C1D1E8CF512C312C20E02032A0F48B32CE
:100C600069F030F4803259F0833269F420612CC08D
:100C70008D3239F0803339F4216026C0226024603F
:100C800023C0286021C027FD27C030ED380F3A303F
:100C900078F426FF06C0FAE05F9E300D1124532E33
:100CA00013C08AE0389E300D1124332E20620CC010
:100CB0008E3221F426FD5FC1206406C08C3611F40B
:100CC000206802C0883641F4F60193FD859193FFB8
:100CD00081916F018111C1CF982F9F7D95549330E1
:100CE00028F40C5F1F4FFFE3F9830DC0833631F00A
:100CF000833771F0833509F057C021C0F801808136
:100D000089830E5F1F4F44244394512C540114C017
:100D10003801F2E06F0E711CF801A080B18026FF4F
:100D200003C0652D70E002C06FEF7FEFC5012C8717
:100D300036D12C0183012C852F77222E16C0380145
:100D4000F2E06F0E711CF801A080B18026FF03C095
:100D5000652D70E002C06FEF7FEFC5012C8714D1C5
:100D60002C012C852068222E830123FC19C0832DA1
:100D700090E048165906A0F4B70180E290E02AD12D
:100D80003A94F5CFF50127FC859127FE81915F010B
:100D9000B70190E01FD131103A94F1E04F1A510899
:100DA0004114510479F7DEC0843611F0893631F5EB
:100DB000F80127FF07C060817181828193810C5FF8
:100DC0001F4F08C060817181072E000C880B990BA2
:100DD0000E5F1F4F2F76722E97FF09C0909580955A
:100DE000709561957F4F8F4F9F4F2068722E2AE03C
:100DF00030E0A40127D1A82EA81843C0853729F4D4
:100E00002F7EB22E2AE030E025C0F22FF97FBF2ED0
:100E10008F36C1F018F4883579F0ADC0803719F0FD
:100E2000883721F0A8C02F2F2061B22EB4FE0DC04C
:100E30008B2D8460B82E09C024FF0AC09F2F9660B6
:100E4000B92E06C028E030E005C020E130E002C045
:100E500020E132E0F801B7FE07C060817181828134
:100E600093810C5F1F4F06C06081718180E090E02C
:100E70000E5F1F4FA401E6D0A82EA818FB2DFF7708
:100E80007F2E76FE0BC0372D3E7FA51450F474FEE6
:100E90000AC072FC08C0372D3E7E05C0BA2C372D23
:100EA00003C0BA2C01C0B52C34FF0DC0FE01EA0D01
:100EB000F11D8081803311F4397E09C032FF06C0F4
:100EC000B394B39404C0832F867809F0B39433FDB0
:100ED00012C030FF06C05A2CB31418F4530C5B1820
:100EE000B32CB31460F4B70180E290E03C8772D079
:100EF000B3943C85F6CFB31410F43B1801C0312CE9
:100F000034FF11C0B70180E390E03C8763D03C859B
:100F100032FF16C031FD03C088E790E002C088E5CB
:100F200090E0B7010CC0832F867851F031FF02C0EA
:100F30008BE201C080E237FD8DE2B70190E04AD03C
:100F4000A51430F4B70180E390E044D05A94F8CF70
:100F5000AA94F401EA0DF11D8081B70190E03AD026
:100F6000A110F6CF332009F45DCEB70180E290E006
:100F700031D03A94F7CFF7018681978102C08FEF85
:100F80009FEF2C96E2E1D8C0FC01059061507040C3
:100F90000110D8F7809590958E0F9F1F0895FC0142
:100FA0006150704001900110D8F7809590958E0F98
:100FB0009F1F0895DC01FC01672F71917723E1F7F2
:100FC000329704C07C916D9370836291AE17BF0716
:100FD000C8F308950F931F93CF93DF93FB012381F1
:100FE00021FD03C08FEF9FEF28C022FF16C046816E
:100FF0005781248135814217530744F4A081B18180
:101000009D012F5F3F4F318320838C932681378151
:101010002F5F3F4F3783268310C0EB01092F182F16
:101020000084F185E02D0995892BE1F68E819F8161
:1010300001969F838E83812F902FDF91CF911F91F7
:101040000F910895FA01AA27283051F1203181F13A
:10105000E8946F936E7F6E5F7F4F8F4F9F4FAF4FC0
:10106000B1E03ED0B4E03CD0670F781F891F9A1FD3
:10107000A11D680F791F8A1F911DA11D6A0F711D87
:10108000811D911DA11D20D009F468943F912AE093
:10109000269F11243019305D3193DEF6CF0108957B
:1010A000462F4770405D4193B3E00FD0C9F7F6CFAC
:1010B000462F4F70405D4A3318F0495D31FD405274
:1010C000419302D0A9F7EACFB4E0A695979587950A
:1010D00077956795BA95C9F70097610571050895E9
:1010E0009B01AC010A2E0694579547953795279595
:1010F000BA95C9F7620F731F841F951FA01D08952D
:101100002F923F924F925F926F927F928F929F9217
:10111000AF92BF92CF92DF92EF92FF920F931F9305
:10112000CF93DF93CDB7DEB7CA1BDB0B0FB6F894B6
:10113000DEBF0FBECDBF09942A88398848885F84F6
:101140006E847D848C849B84AA84B984C884DF8067
:10115000EE80FD800C811B81AA81B981CE0FD11D4B
:101160000FB6F894DEBF0FBECDBFED010895F89421
:02117000FFCFAF
:101172000000F402200044656C6179696E670D0A13
:10118200004576656E742064657465637465642CCD
:1011920020706F7374706F6E696E672E0D0A005245
:1011A20065636F7665727920616674657220574453
:1011B200542E0D0A004465627567205075742043F1
:1011C20068617220757020616E6420776F726B693E
:1011D2006E67210D0A004D61696E2055617274209F
:1011E200696E697469616C697A6564210D0A0053DC
:1011F20074616E6461727420696E697420737461C3
:10120200727465642E0D0A00536C656570206D6FF3
:101212006465207365742E0D0A0041444320313009
:101222006269742076616C7565203D20004D6F6E99
:1012320069746F72696E67206D6F76656D656E7425
:101242002E0D0A004D6F76656D656E742066696EAF
:1012520069736865642E0D0A004E6F206D6F7665A6
:101262006D656E742064657465637465642E0D0A21
:1012720000476F696E6720746F20736C6565702E0E
:101282000D0A00576F6B652075702E0D0A002B3307
:101292003730363132313737383800534D532074B6
:1012A2006573742E2E2E004552524F52002B43521C
:1012B20045473A20302C31002B435245473A2030E3
:1012C2002C350041542B434D47533D222573220DAB
:1012D200003E0041544425733B0D00312C31004146
:1012E200542B53415042523D332C312C0025732252
:1012F200434F4E54595045222C2247505253220DEF
:101302000025732241504E222C222573220D0025E6
:10131200732255534552222C222573220D00257328
:1013220022505744222C222573220D002B4854545C
:1013320050414354494F4E3A312C323030002B4801
:10134200545450414354494F4E3A302C32303000BD
:1013520041542B48545450504152413D2255524C15
:10136200222C002573222573220D0025732225735A
:101372003F2573220D0041542B485454504441548C
:10138200413D25642C32303030300D00444F574EF1
:101392004C4F41440041542B48545450524541440F
:1013A2003D302C25640D002B485454505245414485
:0813B2003A000D0A4F4B000048
:00000001FF
