:1000000012C02DC043C02AC029C028C027C026C0A6
:1000100025C046C023C03FC16AC120C01FC01EC04A
:100020001DC01CC01BC011241FBECFE5D4E0DEBF25
:10003000CDBF11E0A0E6B0E0E0EEF3E002C0059035
:100040000D92A837B107D9F721E0A8E7B1E001C0C8
:100050001D92A03CB207E1F76AD0C0C1D1CF1F9278
:100060000F920FB60F9211248F939F9381E080938C
:100070007A0187E893E10197F1F700C000009F91B2
:100080008F910F900FBE0F901F9018951F920F9297
:100090000FB60F9211240F900FBE0F901F9018955E
:1000A0001F920F920FB60F9211248F939F938091FE
:1000B0007801909179018E3F910520F0109279019D
:1000C0001092780180917801909179010196909336
:1000D0007901809378019F918F910F900FBE0F90BF
:1000E0001F9018951F93CF93DF93EC011092790125
:1000F0001092780112BE80E011E00EC090917A015A
:10010000913051F410927A01109279011092780195
:100110008BE690E0B2D0812F209178013091790167
:100120002C173D0758F3DF91CF911F910895CF937E
:10013000DF9300D000D0CDB7DEB787EA91E6019714
:10014000F1F700C0000004B603FE06C089E890E0A5
:1001500094D084B7877F84BFC19AB99A8FE990E021
:100160008CD0789480EC90E0F8D0F89483EC99E00F
:100170000197F1F700C0000089ED90E07ED05CD0DF
:1001800085B78F78806285BF82EF90E076D0B89A8D
:10019000789435D04AE0BE016F5F7F4FECD084E0A9
:1001A00091E06BD0CE01019668D086ED90E065D0ED
:1001B00087E191E062D088EE90E094DF882339F007
:1001C00033D08EE291E059D0C09A32D003C083E49C
:1001D00091E053D0C0988BE591E04FD085B780680F
:1001E00085BF889585B78F7785BF87EA91E60197A8
:1001F000F1F700C000008DE691E03FD0CACF87B193
:10020000836087B986B1836086B9379A369A369902
:10021000FECF379884B195B1089583B7856083BFC9
:1002200089B7816089BF08958BB78F7B8BBF089595
:100230008BB780648BBF0895929A8BB780648BBF15
:10024000ECDF08952FB7F8949AE0E8B3ED7FE8BBB0
:1002500000000000000000000000E1E3F0E0319742
:10026000F1F7E8B380FDE26080FFED7FE8BB089422
:1002700087959A9591F72FBF0895CF93DF93EC015F
:100280008881882329F02196DDDF89918111FCCFB7
:10029000DF91CF9108951F920F920FB60F92112404
:1002A0002F938F939F93EF93FF938BB12CB1887112
:1002B000E0917D01EF5FEF7190917C01E91739F0DA
:1002C000E0937D01F0E0E058FE4F208301C082E022
:1002D00090917B01892B80937B01FF91EF919F91FE
:1002E0008F912F910F900FBE0F901F9018951F9216
:1002F0000F920FB60F9211248F939F93EF93FF935A
:1003000090917F0180917E01981761F0E0917E01CC
:10031000EF5FEF71E0937E01F0E0E056FE4F8081E9
:100320008CB901C05598FF91EF919F918F910F90DB
:100330000FBE0F901F90189520917F012F5F2F7196
:1003400090917E012917E1F3E22FF0E0E056FE4F95
:10035000808320937F01559A0895CF93DF93EC011A
:100360008881882329F02196E7DF89918111FCCFCC
:10037000DF91CF910895BB274A3031F4992322F4BD
:10038000BDE2909581959F4F01C0BB27FB0155278A
:10039000AA27880F991FAA1FA41710F0A41B8395E2
:1003A0005051B9F7A05DAA3308F0A95DA193009759
:1003B00079F7B111B1931192CB0100C0DC01FC01BE
:1003C000672F71917723E1F7329704C07C916D9389
:1003D00070836291AE17BF07C8F30895F894FFCFFA
:1003E00044656C6179696E670D0A004576656E74C7
:1003F0002064657465637465642C20706F73747019
:100400006F6E696E672E0D0A005265636F766572B6
:1004100079206166746572205744542E0D0A004499
:10042000656275672050757420436861722075702D
:1004300020616E6420776F726B696E67210D0A0010
:100440004D61696E205561727420696E69746961CD
:100450006C697A6564210D0A005374616E6461727F
:100460007420696E697420737461727465642E0DF2
:100470000A00536C656570206D6F64652073657448
:100480002E0D0A00414443203130626974207661A8
:100490006C7565203D20004D6F6E69746F72696EDA
:1004A00067206D6F76656D656E742E0D0A004D6F59
:1004B00076656D656E742066696E69736865642E15
:1004C0000D0A004E6F206D6F76656D656E74206449
:1004D000657465637465642E0D0A00476F696E6705
:1004E00020746F20736C6565702E0D0A00576F6B5A
:0804F000652075702E0D0A0055
:00000001FF
