:1000000012C02DC03BC02AC029C028C027C026C0AE
:1000100025C03EC023C015C140C120C01FC01EC0A6
:100020001DC01CC01BC011241FBECFE5D4E0DEBF25
:10003000CDBF10E0A0E6B0E0ECE8F3E002C0059030
:100040000D92A23EB107D9F721E0A2EEB0E001C0C7
:100050001D92A932B207E1F747D096C1D1CF1F92C6
:100060000F920FB60F9211248F9381E08093E300DB
:100070008F910F900FBE0F901F9018951F920F92A7
:100080000FB60F9211240F900FBE0F901F9018956E
:100090001F920F920FB60F9211248F938091E2005E
:1000A0008E3F10F01092E2008091E2008F5F80930B
:1000B000E2008F910F900FBE0F901F901895109235
:1000C000E20012BE20E031E009C09091E3009130DF
:1000D00029F41092E2001092E300232F9091E200A5
:1000E000981798F3822F0895CF93DF93CDB7DEB79B
:1000F00060970FB6F894DEBF0FBECDBF87EA91E6DA
:100100000197F1F700C0000004B603FE06C08BE6BD
:1001100090E078D084B7877F84BFC29ABA9A81E88A
:1001200090E070D0789482EA90E0EDD0F89483EC7F
:1001300099E00197F1F700C000008BEB90E062D0EE
:100140006FD085B78F78806285BF8FEC90E05AD0F2
:1001500078942FD04AE0BE016F5F7F4FE2D0CE018E
:10016000019650D087EA91E60197F1F700C00000B0
:100170008AE0A5DF882379F08BB78F7B8BBF9FE761
:100180002AE186E0915020408040E1F700C0000065
:100190008BB780648BBF85B7806885BF889585B72E
:1001A0008F7785BF87EA91E60197F1F700C00000DD
:1001B000D0CF87B1836087B986B1836086B9379A1B
:1001C000369A3699FECF379884B195B108952FB7F6
:1001D000F8949AE0E8B3EB7FE8BB00000000000071
:1001E00000000000E1E3F0E03197F1F7E8B380FDB3
:1001F000E46080FFEB7FE8BB089487959A9591F7C0
:100200002FBF0895CF93DF93EC018881882329F0D5
:100210002196DDDF89918111FCCFDF91CF91089587
:100220009EE088E10FB6F894A89581BD0FBE91BD00
:10023000A895929A8BB782608BBF8BB780648BBF77
:1002400008951F920F920FB60F9211242F938F9340
:100250009F93EF93FF938BB12CB18871E091E600EF
:10026000EF5FEF719091E500E91739F0E093E60058
:10027000F0E0E751FF4F208301C082E09091E4005D
:10028000892B8093E400FF91EF919F918F912F91A3
:100290000F900FBE0F901F9018951F920F920FB6E0
:1002A0000F9211248F939F93EF93FF939091E80007
:1002B0008091E700981761F0E091E700EF5FEF7140
:1002C000E093E700F0E0E75FFE4F80818CB901C06A
:1002D0005598FF91EF919F918F910F900FBE0F90C6
:1002E0001F9018952091E8002F5F2F719091E700E3
:1002F0002917E1F3E22FF0E0E75FFE4F80832093C0
:10030000E800559A0895CF93DF93EC018881882304
:1003100029F02196E7DF89918111FCCFDF91CF9100
:100320000895BB274A3031F4992322F4BDE2909519
:1003300081959F4F01C0BB27FB015527AA27880F36
:10034000991FAA1FA41710F0A41B83955051B9F749
:10035000A05DAA3308F0A95DA193009779F7B111C8
:10036000B1931192CB0100C0DC01FC01672F7191A8
:100370007723E1F7329704C07C916D93708362918B
:0C038000AE17BF07C8F30895F894FFCF34
:10038C0044656C6179696E670D0A005265636F761E
:10039C00657279206166746572205744542E0D0A7B
:1003AC000044656275672050757420436861722043
:1003BC00757020616E6420776F726B696E67210DAA
:1003CC000A004D61696E205561727420696E697402
:1003DC0069616C697A6564210D0A0050494E206987
:1003EC006E697420737461727465642E0D0A005307
:1003FC006C656570206D6F6465207365742E0D0AD5
:02040C000000EE
:00000001FF
