:100000000C9434000C9453000C9462000C94510036
:100010000C9451000C9451000C9451000C9451001C
:100020000C9451000C9451000C9451000C9451000C
:100030000C9451000C9451000C9451000C945100FC
:100040000C946C000C9451000C945D010C948B0189
:100050000C9451000C9451000C9451000C945100DC
:100060000C9451000C94510011241FBECFEFD8E026
:10007000DEBFCDBF11E0A0E0B1E0E0E2F4E002C0FD
:1000800005900D92A238B107D9F721E0A2E8B1E0BE
:1000900001C01D92A93CB207E1F70E9498000C94A0
:1000A0000E020C9400001F920F920FB60F921124B3
:1000B0008F9381E0809383018F910F900FBE0F90FB
:1000C0001F9018951F920F920FB60F9211240F9048
:1000D0000FBE0F901F9018951F920F920FB60F92A0
:1000E00011248F93809182018E3F10F01092820133
:1000F000809182018F5F809382018F910F900FBE5C
:100100000F901F9018951092820116BC20E031E0EC
:1001100009C090918301913029F4109282011092CC
:100120008301232F90918201981798F3822F0895CD
:10013000CF93DF93CDB7DEB760970FB6F894DEBFED
:100140000FBECDBF87EA91E60197F1F700C000002E
:1001500004B603FE07C08BE091E00E943B0184B728
:10016000877F84BF2A9A229A81E291E00E943B0114
:10017000789482E491E00E94CA01F89483EC99E0BB
:100180000197F1F700C000008BE591E00E943B0170
:100190000E944A0183B7817F846083BF8FE691E02C
:1001A0000E943B0178940E9403014AE0BE016F5F08
:1001B0007F4F0E94D901CE0101960E943B0187EA40
:1001C00091E60197F1F700C000008AE00E948300E9
:1001D000882359F0E8989FE72AE186E09150204073
:1001E0008040E1F700C00000E89A83B7816083BFD8
:1001F000889583B78E7F83BF87EA91E60197F1F7F1
:1002000000C00000D0CFECE7F0E080818360808305
:10021000EAE7F0E08081836080838081806880836A
:10022000808180648083808186FDFDCFEAE7F0E0F5
:1002300080818F77808380917800909179000895F4
:100240002FB7F8949AE0E5B1EB7FE5B90000000024
:10025000000000000000E1E3F0E03197F1F7E5B1C4
:1002600080FDE46080FFEB7FE5B9089487959A955F
:1002700091F72FBF0895CF93DF93EC0188818823F6
:1002800031F021960E94200189918111FBCFDF91ED
:10029000CF91089599E288E10FB6F894A8958093DC
:1002A00060000FBE90936000A8955A9AE9E6F0E0CE
:1002B000808182608083E89A08951F920F920FB622
:1002C0000F9211242F938F939F93EF93FF9380911D
:1002D000C0002091C6008871E0918601EF5FEF7148
:1002E00090918501E91739F0E0938601F0E0E75736
:1002F000FE4F208301C082E090918401892B80937E
:100300008401FF91EF919F918F912F910F900FBEDC
:100310000F901F9018951F920F920FB60F921124F5
:100320008F939F93EF93FF93909188018091870122
:10033000981769F0E0918701EF5FEF71E093870113
:10034000F0E0E755FE4F80818093C60005C0E1ECE8
:10035000F0E080818F7D8083FF91EF919F918F915D
:100360000F900FBE0F901F901895209188012F5F5E
:100370002F71909187012917E1F3E22FF0E0E75503
:10038000FE4F808320938801E1ECF0E08081806261
:1003900080830895CF93DF93EC018881882331F027
:1003A00021960E94B50189918111FBCFDF91CF91F8
:1003B0000895BB274A3031F4992322F4BDE2909589
:1003C00081959F4F0C94E501BB27FB015527AA2778
:1003D000880F991FAA1FA41710F0A41B83955051D2
:1003E000B9F7A05DAA3308F0A95DA193009779F74A
:1003F000B111B1931192CB010C94FE01DC01FC010F
:10040000672F71917723E1F7329704C07C916D9348
:1004100070836291AE17BF07C8F30895F894FFCFB9
:1004200044656C6179696E670D0A005265636F7689
:10043000657279206166746572205744542E0D0AE6
:1004400000446562756720507574204368617220AE
:10045000757020616E6420776F726B696E67210D15
:100460000A004D61696E205561727420696E69746D
:1004700069616C697A6564210D0A0050494E2069F2
:100480006E697420737461727465642E0D0A005372
:100490006C656570206D6F6465207365742E0D0A40
:0204A00000005A
:00000001FF
