:100000000C9434000C948F000C9499000C945100C3
:100010000C9451000C9451000C9451000C9451001C
:100020000C9451000C9451000C9451000C9451000C
:100030000C9451000C9451000C9451000C945100FC
:100040000C9451000C9451000C94DE000C940C01A3
:100050000C9451000C9451000C9451000C945100DC
:100060000C9451000C94510011241FBECFEFD8E026
:10007000DEBFCDBF11E0A0E0B1E0EAEEF2E002C0E9
:1000800005900D92A037B107D9F721E0A0E7B1E0C4
:1000900001C01D92A53BB207E1F70E9453000C94EA
:1000A00073010C94000087EA91E60197F1F700C014
:1000B000000099E288E10FB6F894A895809360005B
:1000C0000FBE90936000A89504B603FE07C08BE0B6
:1000D00091E00E94BE0084B7877F84BF2A9A229A4B
:1000E00081E291E00E94BE008CE090E00E94360127
:1000F000789482E491E00E946401F89483EC99E0A2
:100100000197F1F700C000008BE591E00E94BE006E
:100110000E94CD0083B7817F846083BFFFCF1F9291
:100120000F920FB60F9211240F900FBE0F901F90D9
:1001300018951F920F920FB60F9211240F900FBEB9
:100140000F901F9018952FB7F8949AE0E5B1EB7FC8
:10015000E5B900000000000000000000E1E3F0E06D
:100160003197F1F7E5B180FDE46080FFEB7FE5B901
:10017000089487959A9591F72FBF0895CF93DF93B1
:10018000EC018881882331F021960E94A300899197
:100190008111FBCFDF91CF9108955A9AE9E6F0E003
:1001A0008081826080835B9A808188608083E89A06
:1001B000E99A5C9A559A569A579A08951F920F9207
:1001C0000FB60F9211242F938F939F93EF93FF936A
:1001D0008091C0002091C6008871E0917201EF5FAC
:1001E000EF7190917101E91739F0E0937201F0E03D
:1001F000EB58FE4F208301C082E090917001892B63
:1002000080937001FF91EF919F918F912F910F90AB
:100210000FBE0F901F9018951F920F920FB60F925E
:1002200011248F939F93EF93FF939091740180918A
:100230007301981769F0E0917301EF5FEF71E0933C
:100240007301F0E0EB56FE4F80818093C60005C03D
:10025000E1ECF0E080818F7D8083FF91EF919F91B1
:100260008F910F900FBE0F901F90189510927401F0
:10027000109273011092720110927101992324F46B
:1002800022E02093C0009F779093C5008093C40024
:1002900088E98093C10086E08093C2000895209190
:1002A00074012F5F2F71909173012917E1F3E22FF1
:1002B000F0E0EB56FE4F808320937401E1ECF0E018
:1002C0008081806280830895CF93DF93EC018881E1
:1002D000882331F021960E944F0189918111FBCF33
:0A02E000DF91CF910895F894FFCF4D
:1002EA0044656C6179696E670D0A005265636F76C1
:1002FA00657279206166746572205744542E0D0A1E
:10030A0000446562756720507574204368617220E5
:10031A00757020616E6420776F726B696E67210D4C
:10032A000A004D61696E205561727420696E6974A4
:10033A0069616C697A6564210D0A0050494E206929
:10034A006E697420737461727465642E0D0A0000FC
:00000001FF
